:020000040000fa
:080000000001040000000000f3
:020000040000fa
:0400080004020000ee
:020000040000fa
:04000c0004020000ea
:020000040000fa
:0400100004020000e6
:020000040000fa
:0400140004020000e2
:020000040000fa
:0400180004020000de
:020000040000fa
:04001c0004020000da
:020000040000fa
:0400200004020000d6
:020000040000fa
:0400240004020000d2
:020000040000fa
:0400280004020000ce
:020000040000fa
:04002c0004020000ca
:020000040000fa
:0400300004020000c6
:020000040000fa
:0400340004020000c2
:020000040000fa
:0400380004020000be
:020000040000fa
:04003c0004020000ba
:020000040000fa
:0400400004020000b6
:020000040000fa
:0400440004020000b2
:020000040000fa
:0400480004020000ae
:020000040000fa
:04004c0004020000aa
:020000040000fa
:0400500004020000a6
:020000040000fa
:0400540004020000a2
:020000040000fa
:04005800040200009e
:020000040000fa
:04005c00040200009a
:020000040000fa
:040060000402000096
:020000040000fa
:040064000402000092
:020000040000fa
:04006800040200008e
:020000040000fa
:04006c00040200008a
:020000040000fa
:040070000402000086
:020000040000fa
:040074000402000082
:020000040000fa
:04007800040200007e
:020000040000fa
:04007c00040200007a
:020000040000fa
:040080000402000076
:020000040000fa
:040084000402000072
:020000040000fa
:04008800040200006e
:020000040000fa
:04008c00040200006a
:020000040000fa
:040090000402000066
:020000040000fa
:040094000402000062
:020000040000fa
:04009800040200005e
:020000040000fa
:04009c00040200005a
:020000040000fa
:0400a0000402000056
:020000040000fa
:0400a4000402000052
:020000040000fa
:0400a800040200004e
:020000040000fa
:0400ac00040200004a
:020000040000fa
:0400b0000402000046
:020000040000fa
:0400b4000402000042
:020000040000fa
:0400b800040200003e
:020000040000fa
:0400bc00040200003a
:020000040000fa
:0400c0000402000036
:020000040000fa
:0400c4000402000032
:020000040000fa
:0400c800040200002e
:020000040000fa
:0400cc00040200002a
:020000040000fa
:0400d0000402000026
:020000040000fa
:0400d4000402000022
:020000040000fa
:0400d800040200001e
:020000040000fa
:0400dc00040200001a
:020000040000fa
:0400e0000402000016
:020000040000fa
:0400e4000402000012
:020000040000fa
:0400e800040200000e
:020000040000fa
:0400ec00040200000a
:020000040000fa
:0400f0000402000006
:020000040000fa
:0400f4000402000002
:020000040000fa
:0400f80004020000fe
:020000040000fa
:0400fc0004020000fa
:020000040000fa
:0401000004020000f5
:020000040000fa
:0401040004020000f1
:020000040000fa
:0401080004020000ed
:020000040000fa
:04010c0004020000e9
:020000040000fa
:0401100004020000e5
:020000040000fa
:0401140004020000e1
:020000040000fa
:0401180004020000dd
:020000040000fa
:04011c0004020000d9
:020000040000fa
:0401200004020000d5
:020000040000fa
:0401240004020000d1
:020000040000fa
:0401280004020000cd
:020000040000fa
:04012c0004020000c9
:020000040000fa
:0401300004020000c5
:020000040000fa
:0401340004020000c1
:020000040000fa
:0401380004020000bd
:020000040000fa
:04013c0004020000b9
:020000040000fa
:0401400004020000b5
:020000040000fa
:0401440004020000b1
:020000040000fa
:0401480004020000ad
:020000040000fa
:04014c0004020000a9
:020000040000fa
:0401500004020000a5
:020000040000fa
:0401540004020000a1
:020000040000fa
:04015800040200009d
:020000040000fa
:04015c000402000099
:020000040000fa
:040160000402000095
:020000040000fa
:040164000402000091
:020000040000fa
:04016800040200008d
:020000040000fa
:04016c000402000089
:020000040000fa
:040170000402000085
:020000040000fa
:040174000402000081
:020000040000fa
:04017800040200007d
:020000040000fa
:04017c000402000079
:020000040000fa
:040180000402000075
:020000040000fa
:040184000402000071
:020000040000fa
:04018800040200006d
:020000040000fa
:04018c000402000069
:020000040000fa
:040190000402000065
:020000040000fa
:040194000402000061
:020000040000fa
:04019800040200005d
:020000040000fa
:04019c000402000059
:020000040000fa
:0401a0000402000055
:020000040000fa
:0401a4000402000051
:020000040000fa
:0401a800040200004d
:020000040000fa
:0401ac000402000049
:020000040000fa
:0401b0000402000045
:020000040000fa
:0401b4000402000041
:020000040000fa
:0401b800040200003d
:020000040000fa
:0401bc000402000039
:020000040000fa
:0401c0000402000035
:020000040000fa
:0401c4000402000031
:020000040000fa
:0401c800040200002d
:020000040000fa
:0401cc000402000029
:020000040000fa
:0401d0000402000025
:020000040000fa
:0401d4000402000021
:020000040000fa
:0401d800040200001d
:020000040000fa
:0401dc000402000019
:020000040000fa
:0401e0000402000015
:020000040000fa
:0401e4000402000011
:020000040000fa
:0401e800040200000d
:020000040000fa
:0401ec000402000009
:020000040000fa
:0401f0000402000005
:020000040000fa
:0401f4000402000001
:020000040000fa
:0401f80004020000fd
:020000040000fa
:0401fc0004020000f9
:020000040000fa
:100200000f8020000e7f24000e01880000000000f7
:10021000000020000000e000020032000001200089
:100220002002880014000700790007000000e000a9
:1002300003003a0000002000010020000200370007
:100240000000200001002000810f7000010032003a
:1002500014000700000020000000e000020032004f
:1002600000000200000000009404020000000000f2
:100270000040da000000fe004440a900c001200058
:100280000000e00003003200002020009001880000
:100290004440a800000006008a1f78008b1f7800e9
:1002a00000000600a1028800800478000000eb0036
:1002b0001f003700e284440054a0b4009905ba003e
:1002c000e284440054a0b4009906ba00e2844400d9
:1002d00054a0b4000006eb00476fde00fd07b2003b
:1002e000ae018800636ce10003003a00eaff0700fa
:1002f0000000eb000e003700606ce10008003a00df
:10030000004deb000a05e800020039003420ec0043
:100310000af0a0008b05e900f9ff3e000400370059
:100320006168e100010032000086eb000b0007006d
:1003300019c7ba001905ba000e04e00003003a001c
:100340000a00e000dbff3a0000000600fe07b200f2
:10035000ae0288008a047800f5ff37000cd0a300b5
:10036000e20f4d001c00390089027800354dba00bb
:100370000a05e800020039003420ec000af0a00071
:100380008b05e9000f003200254dba000a05e80090
:10039000020039003420ec000af0a0008b05e900cf
:1003a000080032000c00e0000600320015cdba0053
:1003b0000a05e800020039003420ec000af0a00031
:1003c0008b05e9008984e80054a0b4000b00e0002c
:1003d000e2ff3a00000006009902ba00055d7800cd
:1003e0008b05e900f7ff3200c82ade00055d7800c2
:1003f0008b05e900f3ff32000c00e000f1ff320052
:1004000019ddba00eeff37000040da000000fe0000
:0404100000000500e3
:020000040000fa
:100414003132000033410000343500003642000020
:1004240037380000394300002a300000234400001c
:10043400776500006c6300006f6d000065000000cc
:0804440080c0000094d4000008
:020000040000fa
:10044c000000fa00ac000700b20007000004200016
:10045c00d400070020c0b3000800070080c2b3001e
:10046c0006000700c0c0b3000400070010c0b300b2
:10047c00020007000080fa00000006000200fa00eb
:10048c00004f78000000eb00c600070000fa2000c7
:10049c00010020002f01070040002000c1000700d0
:1004ac0000fa2000010020002a0107009e80fb00ba
:1004bc00000f2000008060000020a000b9000700a1
:1004cc0000fa200001002000220107009e80fb00a2
:1004dc00000f200000806000b200070000fa20002e
:1004ec00010020001b01070040002000ad000700a8
:1004fc0000fa200001002000160107001e80fb00fe
:10050c00c400dd00f00f2000008060000020a0007f
:10051c00a400070000fa2000010020000d010700d4
:10052c001e80fb004400dd0080007800f00f2000ee
:10053c00008060009b00070000fa200001002000f2
:10054c00040107000080fa00000006000200fa0017
:10055c00004f7800100020009200070000fa2000e5
:10056c0001002000fb000700500020008d00070058
:10057c0000fa200001002000f60007009e80fb001e
:10058c00000f2000008060005000b30085000700c1
:10059c0000fa200001002000ee0007009e80fb0006
:1005ac00000f2000008060000000a0007d0007000c
:1005bc0000fa200001002000e60007005000200097
:1005cc007800070000fa200001002000e10007007d
:1005dc001e80fb00c400dd00f00f200000806000d6
:1005ec005000b3006f00070000fa2000010020004b
:1005fc00d80007001e80fb00c400dd00f00f2000b7
:10060c00008060000000a0006600070000fa2000d7
:10061c0001002000cf0007000080fa000000060057
:10062c000600fa0040479800514798002122280004
:10063c0003000900315f78004e00b1004e4090007d
:10064c000080fb000000e900ee4078005e40900066
:10065c0000c040000040e90088ff070000fa2000bd
:10066c0001002000bb0007000080fa00000006001b
:10067c000200fa00004f78001e407800b3ff07001c
:10068c000080fa00000006000200fa00000f78005b
:10069c001e007800104078001e0fe800abff07002a
:1006ac001e007800104078000004e000f8ff3a00cb
:1006bc000080fa00000006000400fa00004f7800e9
:1006cc0011479800120798009e4090001e40780039
:1006dc00d3ff07001e009000ebff07000080fa001c
:1006ec00000006000000fa0010c0b30063ff070012
:1006fc000080fa00000006000000fa0080002000d4
:10070c00c024880000002800d02488000080fa0053
:10071c00000006000000fa00d02480000000a000b9
:10072c00d024880000000000f12480000000240088
:10073c00008060000000e000fbff3a000080fa003f
:10074c00000006000000fa00d02480000010a00079
:10075c00d024880000000000f12480000000240058
:10076c00008060000000e000fbff3a000080fa000f
:10077c00000006000000fa00d02480000020a00039
:10078c00d024880000000000f12480000000240028
:10079c00008060000000e000fbff3a000080fa00df
:1007ac00000006000200fa00000f780000000000b4
:1007bc00f124800000002400008060000000e000b4
:1007cc00fbff3a009e007800b12488000000000076
:1007dc00f024800061006000004078000004e0001c
:1007ec00fbff3a000080fa00000006000200fa004d
:1007fc00000f780000000000f02480006200600010
:10080c000000e000fcff32001e0078000000e00059
:10081c0003003200d02480000040a000d0248800c7
:10082c00a0248000004078000080fa000000060040
:10083c001200fa00e2004700a22028000f00090075
:10084c00b25878000040eb00004f78002f003700c2
:10085c001e80fb00010120000008dd000080ea0082
:10086c00b03388007826ef008007200001002000bc
:10087c00380007000040eb00104798001f003700bd
:10088c001e4090000080fb00110020000008dd00dd
:10089c0080007800c0338000008060000000e00021
:1008ac0013003a00000000001e4090000080fb0086
:1008bc00110020000008dd0080007800c0338000ab
:1008cc00008060000000e000f7ff32001e40900046
:1008dc008080fb001e80fb00c208dd000080400011
:1008ec0000004700204090000080fa000000060045
:1008fc001e4090000040e800104798001e409000f9
:10090c00e34f5000deff36001e4fe8001e4078001b
:10091c00e34f5000ceff3600caff37000000fa004c
:10092c0011338000e0ff2f0000806000103388003e
:10093c00203380000000a00020338800c0fe070098
:10094c00a021280050ff0700b9ff070048ff07004f
:04095c00fdff370064
:020000040000fa
:10096000f03fb1000180b10006003500ee03090040
:1009700000000000403fb1000180b100fbff3d00de
:100980001000b000203fb0000200350000800900d8
:08099000000000000000060059
:020000040000fa
:020000040005f5
:045e0000ffff0000a0
:020000040000fa
:020000040005f5
:045e2000ffffff0081
:020000040000fa
:020000040005f5
:045e3000ffffff0071
:020000040000fa
:020000040005f5
:045e3800bfffff00a9
:020000040000fa
:020000040005f5
:045e40009fffff00c1
:020000040000fa
:020000040005f5
:045e4800ffffff0059
:020000040000fa
:020000040005f5
:045e5000ffffff0051
:020000040000fa
:020000040005f5
:045e5800ffffff0049
:00000001FF
